{
  "contractName": "UserRegistry",
  "abi": [
    {
      "anonymous": false,
      "inputs": [
        {
          "indexed": true,
          "internalType": "address",
          "name": "userAddress",
          "type": "address"
        },
        {
          "indexed": false,
          "internalType": "string",
          "name": "email",
          "type": "string"
        }
      ],
      "name": "UserRegistered",
      "type": "event"
    },
    {
      "inputs": [
        {
          "internalType": "string",
          "name": "_email",
          "type": "string"
        },
        {
          "internalType": "string",
          "name": "_passwordHash",
          "type": "string"
        }
      ],
      "name": "registerUser",
      "outputs": [],
      "stateMutability": "nonpayable",
      "type": "function"
    },
    {
      "inputs": [
        {
          "internalType": "string",
          "name": "_email",
          "type": "string"
        }
      ],
      "name": "isEmailRegistered",
      "outputs": [
        {
          "internalType": "bool",
          "name": "",
          "type": "bool"
        }
      ],
      "stateMutability": "view",
      "type": "function",
      "constant": true
    },
    {
      "inputs": [
        {
          "internalType": "address",
          "name": "_userAddress",
          "type": "address"
        }
      ],
      "name": "getUser",
      "outputs": [
        {
          "internalType": "string",
          "name": "email",
          "type": "string"
        },
        {
          "internalType": "string",
          "name": "passwordHash",
          "type": "string"
        }
      ],
      "stateMutability": "view",
      "type": "function",
      "constant": true
    }
  ],
  "bytecode": "0x608060405234801561001057600080fd5b50610a44806100206000396000f3fe608060405234801561001057600080fd5b50600436106100415760003560e01c80631d2e4afd146100465780636f77926b14610062578063df3cdad714610093575b600080fd5b610060600480360381019061005b919061061e565b6100c3565b005b61007c600480360381019061007791906105b4565b6102d7565b60405161008a9291906107d7565b60405180910390f35b6100ad60048036038101906100a891906105dd565b61045f565b6040516100ba919061079a565b60405180910390f35b6001826040516100d39190610783565b908152602001604051809103902060009054906101000a900460ff161561012f576040517f08c379a00000000000000000000000000000000000000000000000000000000081526004016101269061082e565b60405180910390fd5b60008060003373ffffffffffffffffffffffffffffffffffffffff1673ffffffffffffffffffffffffffffffffffffffff168152602001908152602001600020600001805461017d90610956565b9050146101bf576040517f08c379a00000000000000000000000000000000000000000000000000000000081526004016101b69061080e565b60405180910390fd5b6040518060400160405280838152602001828152506000803373ffffffffffffffffffffffffffffffffffffffff1673ffffffffffffffffffffffffffffffffffffffff168152602001908152602001600020600082015181600001908051906020019061022e929190610494565b50602082015181600101908051906020019061024b929190610494565b50905050600180836040516102609190610783565b908152602001604051809103902060006101000a81548160ff0219169083151502179055503373ffffffffffffffffffffffffffffffffffffffff167f48cac28ad4dc618e15f4c2dd5e97751182f166de97b25618318b2112aa951a2f836040516102cb91906107b5565b60405180910390a25050565b60608060008060008573ffffffffffffffffffffffffffffffffffffffff1673ffffffffffffffffffffffffffffffffffffffff16815260200190815260200160002060405180604001604052908160008201805461033590610956565b80601f016020809104026020016040519081016040528092919081815260200182805461036190610956565b80156103ae5780601f10610383576101008083540402835291602001916103ae565b820191906000526020600020905b81548152906001019060200180831161039157829003601f168201915b505050505081526020016001820180546103c790610956565b80601f01602080910402602001604051908101604052809291908181526020018280546103f390610956565b80156104405780601f1061041557610100808354040283529160200191610440565b820191906000526020600020905b81548152906001019060200180831161042357829003601f168201915b5050505050815250509050806000015181602001519250925050915091565b60006001826040516104719190610783565b908152602001604051809103902060009054906101000a900460ff169050919050565b8280546104a090610956565b90600052602060002090601f0160209004810192826104c25760008555610509565b82601f106104db57805160ff1916838001178555610509565b82800160010185558215610509579182015b828111156105085782518255916020019190600101906104ed565b5b509050610516919061051a565b5090565b5b8082111561053357600081600090555060010161051b565b5090565b600061054a6105458461087f565b61084e565b90508281526020810184848401111561056257600080fd5b61056d848285610914565b509392505050565b600081359050610584816109f7565b92915050565b600082601f83011261059b57600080fd5b81356105ab848260208601610537565b91505092915050565b6000602082840312156105c657600080fd5b60006105d484828501610575565b91505092915050565b6000602082840312156105ef57600080fd5b600082013567ffffffffffffffff81111561060957600080fd5b6106158482850161058a565b91505092915050565b6000806040838503121561063157600080fd5b600083013567ffffffffffffffff81111561064b57600080fd5b6106578582860161058a565b925050602083013567ffffffffffffffff81111561067457600080fd5b6106808582860161058a565b9150509250929050565b610693816108e8565b82525050565b60006106a4826108af565b6106ae81856108ba565b93506106be818560208601610923565b6106c7816109e6565b840191505092915050565b60006106dd826108af565b6106e781856108cb565b93506106f7818560208601610923565b80840191505092915050565b60006107106017836108ba565b91507f5573657220616c726561647920726567697374657265640000000000000000006000830152602082019050919050565b60006107506018836108ba565b91507f456d61696c20616c7265616479207265676973746572656400000000000000006000830152602082019050919050565b600061078f82846106d2565b915081905092915050565b60006020820190506107af600083018461068a565b92915050565b600060208201905081810360008301526107cf8184610699565b905092915050565b600060408201905081810360008301526107f18185610699565b905081810360208301526108058184610699565b90509392505050565b6000602082019050818103600083015261082781610703565b9050919050565b6000602082019050818103600083015261084781610743565b9050919050565b6000604051905081810181811067ffffffffffffffff82111715610875576108746109b7565b5b8060405250919050565b600067ffffffffffffffff82111561089a576108996109b7565b5b601f19601f8301169050602081019050919050565b600081519050919050565b600082825260208201905092915050565b600081905092915050565b60006108e1826108f4565b9050919050565b60008115159050919050565b600073ffffffffffffffffffffffffffffffffffffffff82169050919050565b82818337600083830152505050565b60005b83811015610941578082015181840152602081019050610926565b83811115610950576000848401525b50505050565b6000600282049050600182168061096e57607f821691505b6020821081141561098257610981610988565b5b50919050565b7f4e487b7100000000000000000000000000000000000000000000000000000000600052602260045260246000fd5b7f4e487b7100000000000000000000000000000000000000000000000000000000600052604160045260246000fd5b6000601f19601f8301169050919050565b610a00816108d6565b8114610a0b57600080fd5b5056fea26469706673582212208b77a710b2830d0e40e8722a2bc94b081499f50a04dbadd6e09ae8b3d3054af664736f6c63430008000033",
  "immutableReferences": {},
  "source": "// SPDX-License-Identifier: MIT\r\npragma solidity ^0.8.0;\r\n\r\ncontract UserRegistry {\r\n    struct User {\r\n        string email;\r\n        string passwordHash; // In practice, use more secure methods for handling passwords\r\n    }\r\n\r\n    mapping(address => User) private users;\r\n    mapping(string => bool) private emailExists;\r\n\r\n    event UserRegistered(address indexed userAddress, string email);\r\n\r\n    /**\r\n     * @dev Register a new user with email and password hash.\r\n     * @param _email The email of the user.\r\n     * @param _passwordHash The hashed password of the user.\r\n     */\r\n    function registerUser(string memory _email, string memory _passwordHash) public {\r\n        require(!emailExists[_email], \"Email already registered\");\r\n        require(bytes(users[msg.sender].email).length == 0, \"User already registered\");\r\n\r\n        users[msg.sender] = User(_email, _passwordHash);\r\n        emailExists[_email] = true;\r\n\r\n        emit UserRegistered(msg.sender, _email);\r\n    }\r\n\r\n    /**\r\n     * @dev Check if an email is already registered.\r\n     * @param _email The email to check.\r\n     * @return bool True if the email is registered, otherwise false.\r\n     */\r\n    function isEmailRegistered(string memory _email) public view returns (bool) {\r\n        return emailExists[_email];\r\n    }\r\n\r\n    /**\r\n     * @dev Get the user's email and password hash by address.\r\n     * @param _userAddress The address of the user.\r\n     * @return email The email of the user.\r\n     * @return passwordHash The hashed password of the user.\r\n     */\r\n    function getUser(address _userAddress) public view returns (string memory email, string memory passwordHash) {\r\n        User memory user = users[_userAddress];\r\n        return (user.email, user.passwordHash);\r\n    }\r\n}\r\n",
  "sourcePath": "D:\\COLLEGE\\Mini Project\\b-lock\\evault\\contracts\\UserRegistry.sol",
  "compiler": {
    "name": "solc",
    "version": "0.8.0+commit.c7dfd78e.Emscripten.clang"
  },
  "schemaVersion": "3.4.16",
  "updatedAt": "2024-07-26T17:05:14.277Z",
  "networkType": "ethereum",
  "devdoc": {
    "kind": "dev",
    "methods": {
      "getUser(address)": {
        "details": "Get the user's email and password hash by address.",
        "params": {
          "_userAddress": "The address of the user."
        },
        "returns": {
          "email": "The email of the user.",
          "passwordHash": "The hashed password of the user."
        }
      },
      "isEmailRegistered(string)": {
        "details": "Check if an email is already registered.",
        "params": {
          "_email": "The email to check."
        },
        "returns": {
          "_0": "bool True if the email is registered, otherwise false."
        }
      },
      "registerUser(string,string)": {
        "details": "Register a new user with email and password hash.",
        "params": {
          "_email": "The email of the user.",
          "_passwordHash": "The hashed password of the user."
        }
      }
    },
    "version": 1
  },
  "userdoc": {
    "kind": "user",
    "methods": {},
    "version": 1
  }
}