{
  "contractName": "EVault",
  "abi": [
    {
      "inputs": [
        {
          "internalType": "string",
          "name": "_fileName",
          "type": "string"
        },
        {
          "internalType": "string",
          "name": "_fileHash",
          "type": "string"
        }
      ],
      "name": "storeFile",
      "outputs": [],
      "stateMutability": "nonpayable",
      "type": "function"
    },
    {
      "inputs": [],
      "name": "retrieveFiles",
      "outputs": [
        {
          "components": [
            {
              "internalType": "string",
              "name": "fileName",
              "type": "string"
            },
            {
              "internalType": "string",
              "name": "fileHash",
              "type": "string"
            }
          ],
          "internalType": "struct EVault.File[]",
          "name": "",
          "type": "tuple[]"
        }
      ],
      "stateMutability": "view",
      "type": "function"
    }
  ],
  "bytecode": "0x608060405234801561001057600080fd5b5061075e806100206000396000f3fe608060405234801561001057600080fd5b50600436106100365760003560e01c806320de10701461003b57806332f4c6f914610057575b600080fd5b610055600480360381019061005091906103fb565b610075565b005b61005f610131565b60405161006c919061056d565b60405180910390f35b6000803373ffffffffffffffffffffffffffffffffffffffff1673ffffffffffffffffffffffffffffffffffffffff1681526020019081526020016000206040518060400160405280848152602001838152509080600181540180825580915050600190039060005260206000209060020201600090919091909150600082015181600001908051906020019061010d9291906102f0565b50602082015181600101908051906020019061012a9291906102f0565b5050505050565b60606000803373ffffffffffffffffffffffffffffffffffffffff1673ffffffffffffffffffffffffffffffffffffffff168152602001908152602001600020805480602002602001604051908101604052809291908181526020016000905b828210156102e757838290600052602060002090600202016040518060400160405290816000820180546101c490610687565b80601f01602080910402602001604051908101604052809291908181526020018280546101f090610687565b801561023d5780601f106102125761010080835404028352916020019161023d565b820191906000526020600020905b81548152906001019060200180831161022057829003601f168201915b5050505050815260200160018201805461025690610687565b80601f016020809104026020016040519081016040528092919081815260200182805461028290610687565b80156102cf5780601f106102a4576101008083540402835291602001916102cf565b820191906000526020600020905b8154815290600101906020018083116102b257829003601f168201915b50505050508152505081526020019060010190610191565b50505050905090565b8280546102fc90610687565b90600052602060002090601f01602090048101928261031e5760008555610365565b82601f1061033757805160ff1916838001178555610365565b82800160010185558215610365579182015b82811115610364578251825591602001919060010190610349565b5b5090506103729190610376565b5090565b5b8082111561038f576000816000905550600101610377565b5090565b60006103a66103a1846105c0565b61058f565b9050828152602081018484840111156103be57600080fd5b6103c9848285610645565b509392505050565b600082601f8301126103e257600080fd5b81356103f2848260208601610393565b91505092915050565b6000806040838503121561040e57600080fd5b600083013567ffffffffffffffff81111561042857600080fd5b610434858286016103d1565b925050602083013567ffffffffffffffff81111561045157600080fd5b61045d858286016103d1565b9150509250929050565b60006104738383610529565b905092915050565b600061048682610600565b6104908185610623565b9350836020820285016104a2856105f0565b8060005b858110156104de57848403895281516104bf8582610467565b94506104ca83610616565b925060208a019950506001810190506104a6565b50829750879550505050505092915050565b60006104fb8261060b565b6105058185610634565b9350610515818560208601610654565b61051e81610717565b840191505092915050565b6000604083016000830151848203600086015261054682826104f0565b9150506020830151848203602086015261056082826104f0565b9150508091505092915050565b60006020820190508181036000830152610587818461047b565b905092915050565b6000604051905081810181811067ffffffffffffffff821117156105b6576105b56106e8565b5b8060405250919050565b600067ffffffffffffffff8211156105db576105da6106e8565b5b601f19601f8301169050602081019050919050565b6000819050602082019050919050565b600081519050919050565b600081519050919050565b6000602082019050919050565b600082825260208201905092915050565b600082825260208201905092915050565b82818337600083830152505050565b60005b83811015610672578082015181840152602081019050610657565b83811115610681576000848401525b50505050565b6000600282049050600182168061069f57607f821691505b602082108114156106b3576106b26106b9565b5b50919050565b7f4e487b7100000000000000000000000000000000000000000000000000000000600052602260045260246000fd5b7f4e487b7100000000000000000000000000000000000000000000000000000000600052604160045260246000fd5b6000601f19601f830116905091905056fea26469706673582212204dda1ca4dabd289207db9e8922f5c9b68deddc856c23cdc36f380ee276932d0d64736f6c63430008000033",
  "immutableReferences": {},
  "source": "// SPDX-License-Identifier: MIT\r\npragma solidity ^0.8.0;\r\n\r\ncontract EVault {\r\n    struct File {\r\n        string fileName;\r\n        string fileHash;\r\n    }\r\n\r\n    mapping(address => File[]) private userFiles;\r\n\r\n    function storeFile(string memory _fileName, string memory _fileHash) public {\r\n        userFiles[msg.sender].push(File(_fileName, _fileHash));\r\n    }\r\n\r\n    function retrieveFiles() public view returns (File[] memory) {\r\n        return userFiles[msg.sender];\r\n    }\r\n}\r\n",
  "sourcePath": "C:\\Users\\HP\\OneDrive\\Desktop\\blockchain\\evault\\contracts\\EVault.sol",
  "compiler": {
    "name": "solc",
    "version": "0.8.0+commit.c7dfd78e.Emscripten.clang"
  },
  "schemaVersion": "3.4.16",
  "updatedAt": "2024-07-18T18:32:10.691Z",
  "devdoc": {
    "kind": "dev",
    "methods": {},
    "version": 1
  },
  "userdoc": {
    "kind": "user",
    "methods": {},
    "version": 1
  }
}