{
  "contractName": "EVault",
  "abi": [
    {
      "inputs": [
        {
          "internalType": "string",
          "name": "_fileName",
          "type": "string"
        },
        {
          "internalType": "string",
          "name": "_fileHash",
          "type": "string"
        }
      ],
      "name": "storeFile",
      "outputs": [],
      "stateMutability": "nonpayable",
      "type": "function"
    },
    {
      "inputs": [],
      "name": "retrieveFiles",
      "outputs": [
        {
          "components": [
            {
              "internalType": "string",
              "name": "fileName",
              "type": "string"
            },
            {
              "internalType": "string",
              "name": "fileHash",
              "type": "string"
            }
          ],
          "internalType": "struct EVault.File[]",
          "name": "",
          "type": "tuple[]"
        }
      ],
      "stateMutability": "view",
      "type": "function",
      "constant": true
    },
    {
      "inputs": [],
      "name": "getFilenames",
      "outputs": [
        {
          "internalType": "string[]",
          "name": "",
          "type": "string[]"
        }
      ],
      "stateMutability": "view",
      "type": "function",
      "constant": true
    }
  ],
  "bytecode": "0x608060405234801561001057600080fd5b50610bd5806100206000396000f3fe608060405234801561001057600080fd5b50600436106100415760003560e01c806320de10701461004657806332f4c6f914610062578063a8bb425a14610080575b600080fd5b610060600480360381019061005b919061070c565b61009e565b005b61006a61015a565b6040516100779190610929565b60405180910390f35b610088610319565b6040516100959190610907565b60405180910390f35b6000803373ffffffffffffffffffffffffffffffffffffffff1673ffffffffffffffffffffffffffffffffffffffff16815260200190815260200160002060405180604001604052808481526020018381525090806001815401808255809150506001900390600052602060002090600202016000909190919091506000820151816000019080519060200190610136929190610601565b506020820151816001019080519060200190610153929190610601565b5050505050565b60606000803373ffffffffffffffffffffffffffffffffffffffff1673ffffffffffffffffffffffffffffffffffffffff168152602001908152602001600020805480602002602001604051908101604052809291908181526020016000905b8282101561031057838290600052602060002090600202016040518060400160405290816000820180546101ed90610a86565b80601f016020809104026020016040519081016040528092919081815260200182805461021990610a86565b80156102665780601f1061023b57610100808354040283529160200191610266565b820191906000526020600020905b81548152906001019060200180831161024957829003601f168201915b5050505050815260200160018201805461027f90610a86565b80601f01602080910402602001604051908101604052809291908181526020018280546102ab90610a86565b80156102f85780601f106102cd576101008083540402835291602001916102f8565b820191906000526020600020905b8154815290600101906020018083116102db57829003601f168201915b505050505081525050815260200190600101906101ba565b50505050905090565b606060008060003373ffffffffffffffffffffffffffffffffffffffff1673ffffffffffffffffffffffffffffffffffffffff168152602001908152602001600020805480602002602001604051908101604052809291908181526020016000905b828210156104d157838290600052602060002090600202016040518060400160405290816000820180546103ae90610a86565b80601f01602080910402602001604051908101604052809291908181526020018280546103da90610a86565b80156104275780601f106103fc57610100808354040283529160200191610427565b820191906000526020600020905b81548152906001019060200180831161040a57829003601f168201915b5050505050815260200160018201805461044090610a86565b80601f016020809104026020016040519081016040528092919081815260200182805461046c90610a86565b80156104b95780601f1061048e576101008083540402835291602001916104b9565b820191906000526020600020905b81548152906001019060200180831161049c57829003601f168201915b5050505050815250508152602001906001019061037b565b5050505090506000815167ffffffffffffffff81111561051a577f4e487b7100000000000000000000000000000000000000000000000000000000600052604160045260246000fd5b60405190808252806020026020018201604052801561054d57816020015b60608152602001906001900390816105385790505b50905060005b82518110156105f857828181518110610595577f4e487b7100000000000000000000000000000000000000000000000000000000600052603260045260246000fd5b6020026020010151600001518282815181106105da577f4e487b7100000000000000000000000000000000000000000000000000000000600052603260045260246000fd5b602002602001018190525080806105f090610ab8565b915050610553565b50809250505090565b82805461060d90610a86565b90600052602060002090601f01602090048101928261062f5760008555610676565b82601f1061064857805160ff1916838001178555610676565b82800160010185558215610676579182015b8281111561067557825182559160200191906001019061065a565b5b5090506106839190610687565b5090565b5b808211156106a0576000816000905550600101610688565b5090565b60006106b76106b28461097c565b61094b565b9050828152602081018484840111156106cf57600080fd5b6106da848285610a44565b509392505050565b600082601f8301126106f357600080fd5b81356107038482602086016106a4565b91505092915050565b6000806040838503121561071f57600080fd5b600083013567ffffffffffffffff81111561073957600080fd5b610745858286016106e2565b925050602083013567ffffffffffffffff81111561076257600080fd5b61076e858286016106e2565b9150509250929050565b6000610784838361088a565b905092915050565b600061079883836108c3565b905092915050565b60006107ab826109cc565b6107b58185610a07565b9350836020820285016107c7856109ac565b8060005b8581101561080357848403895281516107e48582610778565b94506107ef836109ed565b925060208a019950506001810190506107cb565b50829750879550505050505092915050565b6000610820826109d7565b61082a8185610a18565b93508360208202850161083c856109bc565b8060005b858110156108785784840389528151610859858261078c565b9450610864836109fa565b925060208a01995050600181019050610840565b50829750879550505050505092915050565b6000610895826109e2565b61089f8185610a29565b93506108af818560208601610a53565b6108b881610b8e565b840191505092915050565b600060408301600083015184820360008601526108e0828261088a565b915050602083015184820360208601526108fa828261088a565b9150508091505092915050565b6000602082019050818103600083015261092181846107a0565b905092915050565b600060208201905081810360008301526109438184610815565b905092915050565b6000604051905081810181811067ffffffffffffffff8211171561097257610971610b5f565b5b8060405250919050565b600067ffffffffffffffff82111561099757610996610b5f565b5b601f19601f8301169050602081019050919050565b6000819050602082019050919050565b6000819050602082019050919050565b600081519050919050565b600081519050919050565b600081519050919050565b6000602082019050919050565b6000602082019050919050565b600082825260208201905092915050565b600082825260208201905092915050565b600082825260208201905092915050565b6000819050919050565b82818337600083830152505050565b60005b83811015610a71578082015181840152602081019050610a56565b83811115610a80576000848401525b50505050565b60006002820490506001821680610a9e57607f821691505b60208210811415610ab257610ab1610b30565b5b50919050565b6000610ac382610a3a565b91507fffffffffffffffffffffffffffffffffffffffffffffffffffffffffffffffff821415610af657610af5610b01565b5b600182019050919050565b7f4e487b7100000000000000000000000000000000000000000000000000000000600052601160045260246000fd5b7f4e487b7100000000000000000000000000000000000000000000000000000000600052602260045260246000fd5b7f4e487b7100000000000000000000000000000000000000000000000000000000600052604160045260246000fd5b6000601f19601f830116905091905056fea26469706673582212202bdc1431586f1b4cdd3c5f3c021adffe18eae60483364f4baddb197cc81f954864736f6c63430008000033",
  "immutableReferences": {},
  "source": "// SPDX-License-Identifier: MIT\r\npragma solidity ^0.8.0;\r\n\r\ncontract EVault {\r\n    struct File {\r\n        string fileName;\r\n        string fileHash;\r\n    }\r\n\r\n    mapping(address => File[]) private userFiles;\r\n\r\n    function storeFile(string memory _fileName, string memory _fileHash) public {\r\n        userFiles[msg.sender].push(File(_fileName, _fileHash));\r\n    }\r\n\r\n    function retrieveFiles() public view returns (File[] memory) {\r\n        return userFiles[msg.sender];\r\n    }\r\n}\r\n",
  "sourcePath": "C:\\Users\\Karthik\\Desktop\\B-love\\evault\\contracts\\EVault.sol",
  "compiler": {
    "name": "solc",
    "version": "0.8.0+commit.c7dfd78e.Emscripten.clang"
  },
  "schemaVersion": "3.4.16",
  "updatedAt": "2024-07-16T15:58:35.170Z",
  "networkType": "ethereum",
  "devdoc": {
    "kind": "dev",
    "methods": {},
    "version": 1
  },
  "userdoc": {
    "kind": "user",
    "methods": {},
    "version": 1
  }
}