{
  "contractName": "BLockVault",
  "abi": [
    {
      "inputs": [
        {
          "internalType": "string",
          "name": "_fileName",
          "type": "string"
        },
        {
          "internalType": "string",
          "name": "_fileHash",
          "type": "string"
        }
      ],
      "name": "uploadFile",
      "outputs": [],
      "stateMutability": "nonpayable",
      "type": "function"
    },
    {
      "inputs": [
        {
          "internalType": "uint256",
          "name": "_index",
          "type": "uint256"
        }
      ],
      "name": "getFile",
      "outputs": [
        {
          "internalType": "string",
          "name": "",
          "type": "string"
        },
        {
          "internalType": "string",
          "name": "",
          "type": "string"
        }
      ],
      "stateMutability": "view",
      "type": "function"
    },
    {
      "inputs": [],
      "name": "getFilesCount",
      "outputs": [
        {
          "internalType": "uint256",
          "name": "",
          "type": "uint256"
        }
      ],
      "stateMutability": "view",
      "type": "function"
    }
  ],
  "bytecode": "0x608060405234801561000f575f80fd5b506109448061001d5f395ff3fe608060405234801561000f575f80fd5b506004361061003f575f3560e01c80632bfda31314610043578063996d50bf14610074578063a3322a1214610090575b5f80fd5b61005d60048036038101906100589190610364565b6100ae565b60405161006b929190610419565b60405180910390f35b61008e6004803603810190610089919061057a565b610233565b005b6100986102da565b6040516100a591906105ff565b60405180910390f35b6060805f805f3373ffffffffffffffffffffffffffffffffffffffff1673ffffffffffffffffffffffffffffffffffffffff1681526020019081526020015f208481548110610100576100ff610618565b5b905f5260205f2090600202019050805f018160010181805461012190610672565b80601f016020809104026020016040519081016040528092919081815260200182805461014d90610672565b80156101985780601f1061016f57610100808354040283529160200191610198565b820191905f5260205f20905b81548152906001019060200180831161017b57829003601f168201915b505050505091508080546101ab90610672565b80601f01602080910402602001604051908101604052809291908181526020018280546101d790610672565b80156102225780601f106101f957610100808354040283529160200191610222565b820191905f5260205f20905b81548152906001019060200180831161020557829003601f168201915b505050505090509250925050915091565b5f803373ffffffffffffffffffffffffffffffffffffffff1673ffffffffffffffffffffffffffffffffffffffff1681526020019081526020015f20604051806040016040528084815260200183815250908060018154018082558091505060019003905f5260205f2090600202015f909190919091505f820151815f0190816102bd919061083f565b5060208201518160010190816102d3919061083f565b5050505050565b5f805f3373ffffffffffffffffffffffffffffffffffffffff1673ffffffffffffffffffffffffffffffffffffffff1681526020019081526020015f2080549050905090565b5f604051905090565b5f80fd5b5f80fd5b5f819050919050565b61034381610331565b811461034d575f80fd5b50565b5f8135905061035e8161033a565b92915050565b5f6020828403121561037957610378610329565b5b5f61038684828501610350565b91505092915050565b5f81519050919050565b5f82825260208201905092915050565b5f5b838110156103c65780820151818401526020810190506103ab565b5f8484015250505050565b5f601f19601f8301169050919050565b5f6103eb8261038f565b6103f58185610399565b93506104058185602086016103a9565b61040e816103d1565b840191505092915050565b5f6040820190508181035f83015261043181856103e1565b9050818103602083015261044581846103e1565b90509392505050565b5f80fd5b5f80fd5b7f4e487b71000000000000000000000000000000000000000000000000000000005f52604160045260245ffd5b61048c826103d1565b810181811067ffffffffffffffff821117156104ab576104aa610456565b5b80604052505050565b5f6104bd610320565b90506104c98282610483565b919050565b5f67ffffffffffffffff8211156104e8576104e7610456565b5b6104f1826103d1565b9050602081019050919050565b828183375f83830152505050565b5f61051e610519846104ce565b6104b4565b90508281526020810184848401111561053a57610539610452565b5b6105458482856104fe565b509392505050565b5f82601f8301126105615761056061044e565b5b813561057184826020860161050c565b91505092915050565b5f80604083850312156105905761058f610329565b5b5f83013567ffffffffffffffff8111156105ad576105ac61032d565b5b6105b98582860161054d565b925050602083013567ffffffffffffffff8111156105da576105d961032d565b5b6105e68582860161054d565b9150509250929050565b6105f981610331565b82525050565b5f6020820190506106125f8301846105f0565b92915050565b7f4e487b71000000000000000000000000000000000000000000000000000000005f52603260045260245ffd5b7f4e487b71000000000000000000000000000000000000000000000000000000005f52602260045260245ffd5b5f600282049050600182168061068957607f821691505b60208210810361069c5761069b610645565b5b50919050565b5f819050815f5260205f209050919050565b5f6020601f8301049050919050565b5f82821b905092915050565b5f600883026106fe7fffffffffffffffffffffffffffffffffffffffffffffffffffffffffffffffff826106c3565b61070886836106c3565b95508019841693508086168417925050509392505050565b5f819050919050565b5f61074361073e61073984610331565b610720565b610331565b9050919050565b5f819050919050565b61075c83610729565b6107706107688261074a565b8484546106cf565b825550505050565b5f90565b610784610778565b61078f818484610753565b505050565b5b818110156107b2576107a75f8261077c565b600181019050610795565b5050565b601f8211156107f7576107c8816106a2565b6107d1846106b4565b810160208510156107e0578190505b6107f46107ec856106b4565b830182610794565b50505b505050565b5f82821c905092915050565b5f6108175f19846008026107fc565b1980831691505092915050565b5f61082f8383610808565b9150826002028217905092915050565b6108488261038f565b67ffffffffffffffff81111561086157610860610456565b5b61086b8254610672565b6108768282856107b6565b5f60209050601f8311600181146108a7575f8415610895578287015190505b61089f8582610824565b865550610906565b601f1984166108b5866106a2565b5f5b828110156108dc578489015182556001820191506020850194506020810190506108b7565b868310156108f957848901516108f5601f891682610808565b8355505b6001600288020188555050505b50505050505056fea2646970667358221220b2f0f677158bba22c879812eff251958d888d5cd1518d830783647d4e9ceccf064736f6c63430008150033",
  "immutableReferences": {},
  "source": "pragma solidity ^0.8.0;\r\n\r\ncontract BLockVault {\r\n    struct File {\r\n        string fileName;\r\n        string fileHash;\r\n    }\r\n\r\n    mapping(address => File[]) private userFiles;\r\n\r\n    function uploadFile(string memory _fileName, string memory _fileHash) public {\r\n        userFiles[msg.sender].push(File(_fileName, _fileHash));\r\n    }\r\n\r\n    function getFile(uint _index) public view returns (string memory, string memory) {\r\n        File storage file = userFiles[msg.sender][_index];\r\n        return (file.fileName, file.fileHash);\r\n    }\r\n\r\n    function getFilesCount() public view returns (uint) {\r\n        return userFiles[msg.sender].length;\r\n    }\r\n}\r\n",
  "sourcePath": "D:\\COLLEGE\\Mini Project\\b-lock\\contracts\\BlockVault.sol",
  "compiler": {
    "name": "solc",
    "version": "0.8.21+commit.d9974bed.Emscripten.clang"
  },
  "schemaVersion": "3.4.16",
  "updatedAt": "2024-06-21T01:12:26.635Z",
  "devdoc": {
    "kind": "dev",
    "methods": {},
    "version": 1
  },
  "userdoc": {
    "kind": "user",
    "methods": {},
    "version": 1
  }
}