{
  "contractName": "DocumentManager",
  "abi": [
    {
      "anonymous": false,
      "inputs": [
        {
          "indexed": false,
          "internalType": "uint256",
          "name": "documentId",
          "type": "uint256"
        },
        {
          "indexed": false,
          "internalType": "address",
          "name": "owner",
          "type": "address"
        },
        {
          "indexed": false,
          "internalType": "string",
          "name": "fileHash",
          "type": "string"
        }
      ],
      "name": "DocumentAdded",
      "type": "event"
    },
    {
      "inputs": [],
      "name": "documentCount",
      "outputs": [
        {
          "internalType": "uint256",
          "name": "",
          "type": "uint256"
        }
      ],
      "stateMutability": "view",
      "type": "function"
    },
    {
      "inputs": [
        {
          "internalType": "uint256",
          "name": "",
          "type": "uint256"
        }
      ],
      "name": "documents",
      "outputs": [
        {
          "internalType": "address",
          "name": "owner",
          "type": "address"
        },
        {
          "internalType": "string",
          "name": "fileHash",
          "type": "string"
        }
      ],
      "stateMutability": "view",
      "type": "function"
    },
    {
      "inputs": [
        {
          "internalType": "string",
          "name": "fileHash",
          "type": "string"
        }
      ],
      "name": "addDocument",
      "outputs": [],
      "stateMutability": "nonpayable",
      "type": "function"
    },
    {
      "inputs": [
        {
          "internalType": "uint256",
          "name": "documentId",
          "type": "uint256"
        }
      ],
      "name": "getDocument",
      "outputs": [
        {
          "internalType": "address",
          "name": "",
          "type": "address"
        },
        {
          "internalType": "string",
          "name": "",
          "type": "string"
        }
      ],
      "stateMutability": "view",
      "type": "function"
    }
  ],
  "bytecode": "0x608060405234801561000f575f80fd5b50610a6d8061001d5f395ff3fe608060405234801561000f575f80fd5b506004361061004a575f3560e01c80633f9b250a1461004e578063a5b16b2e1461007f578063c2ed2b051461009d578063f740e045146100ce575b5f80fd5b61006860048036038101906100639190610401565b6100ea565b6040516100769291906104f5565b60405180910390f35b610087610202565b6040516100949190610532565b60405180910390f35b6100b760048036038101906100b29190610401565b610208565b6040516100c59291906104f5565b60405180910390f35b6100e860048036038101906100e39190610677565b6102cc565b005b5f60605f805f8581526020019081526020015f206040518060400160405290815f82015f9054906101000a900473ffffffffffffffffffffffffffffffffffffffff1673ffffffffffffffffffffffffffffffffffffffff1673ffffffffffffffffffffffffffffffffffffffff16815260200160018201805461016d906106eb565b80601f0160208091040260200160405190810160405280929190818152602001828054610199906106eb565b80156101e45780601f106101bb576101008083540402835291602001916101e4565b820191905f5260205f20905b8154815290600101906020018083116101c757829003601f168201915b5050505050815250509050805f015181602001519250925050915091565b60015481565b5f602052805f5260405f205f91509050805f015f9054906101000a900473ffffffffffffffffffffffffffffffffffffffff169080600101805461024b906106eb565b80601f0160208091040260200160405190810160405280929190818152602001828054610277906106eb565b80156102c25780601f10610299576101008083540402835291602001916102c2565b820191905f5260205f20905b8154815290600101906020018083116102a557829003601f168201915b5050505050905082565b60015f8154809291906102de90610748565b919050555060405180604001604052803373ffffffffffffffffffffffffffffffffffffffff168152602001828152505f8060015481526020019081526020015f205f820151815f015f6101000a81548173ffffffffffffffffffffffffffffffffffffffff021916908373ffffffffffffffffffffffffffffffffffffffff1602179055506020820151816001019081610379919061092c565b509050507f47196c0e663d62a1d20866949e3abb46ff57bfa0f0ccea5f2ff2b3b518325d9860015433836040516103b2939291906109fb565b60405180910390a150565b5f604051905090565b5f80fd5b5f80fd5b5f819050919050565b6103e0816103ce565b81146103ea575f80fd5b50565b5f813590506103fb816103d7565b92915050565b5f60208284031215610416576104156103c6565b5b5f610423848285016103ed565b91505092915050565b5f73ffffffffffffffffffffffffffffffffffffffff82169050919050565b5f6104558261042c565b9050919050565b6104658161044b565b82525050565b5f81519050919050565b5f82825260208201905092915050565b5f5b838110156104a2578082015181840152602081019050610487565b5f8484015250505050565b5f601f19601f8301169050919050565b5f6104c78261046b565b6104d18185610475565b93506104e1818560208601610485565b6104ea816104ad565b840191505092915050565b5f6040820190506105085f83018561045c565b818103602083015261051a81846104bd565b90509392505050565b61052c816103ce565b82525050565b5f6020820190506105455f830184610523565b92915050565b5f80fd5b5f80fd5b7f4e487b71000000000000000000000000000000000000000000000000000000005f52604160045260245ffd5b610589826104ad565b810181811067ffffffffffffffff821117156105a8576105a7610553565b5b80604052505050565b5f6105ba6103bd565b90506105c68282610580565b919050565b5f67ffffffffffffffff8211156105e5576105e4610553565b5b6105ee826104ad565b9050602081019050919050565b828183375f83830152505050565b5f61061b610616846105cb565b6105b1565b9050828152602081018484840111156106375761063661054f565b5b6106428482856105fb565b509392505050565b5f82601f83011261065e5761065d61054b565b5b813561066e848260208601610609565b91505092915050565b5f6020828403121561068c5761068b6103c6565b5b5f82013567ffffffffffffffff8111156106a9576106a86103ca565b5b6106b58482850161064a565b91505092915050565b7f4e487b71000000000000000000000000000000000000000000000000000000005f52602260045260245ffd5b5f600282049050600182168061070257607f821691505b602082108103610715576107146106be565b5b50919050565b7f4e487b71000000000000000000000000000000000000000000000000000000005f52601160045260245ffd5b5f610752826103ce565b91507fffffffffffffffffffffffffffffffffffffffffffffffffffffffffffffffff82036107845761078361071b565b5b600182019050919050565b5f819050815f5260205f209050919050565b5f6020601f8301049050919050565b5f82821b905092915050565b5f600883026107eb7fffffffffffffffffffffffffffffffffffffffffffffffffffffffffffffffff826107b0565b6107f586836107b0565b95508019841693508086168417925050509392505050565b5f819050919050565b5f61083061082b610826846103ce565b61080d565b6103ce565b9050919050565b5f819050919050565b61084983610816565b61085d61085582610837565b8484546107bc565b825550505050565b5f90565b610871610865565b61087c818484610840565b505050565b5b8181101561089f576108945f82610869565b600181019050610882565b5050565b601f8211156108e4576108b58161078f565b6108be846107a1565b810160208510156108cd578190505b6108e16108d9856107a1565b830182610881565b50505b505050565b5f82821c905092915050565b5f6109045f19846008026108e9565b1980831691505092915050565b5f61091c83836108f5565b9150826002028217905092915050565b6109358261046b565b67ffffffffffffffff81111561094e5761094d610553565b5b61095882546106eb565b6109638282856108a3565b5f60209050601f831160018114610994575f8415610982578287015190505b61098c8582610911565b8655506109f3565b601f1984166109a28661078f565b5f5b828110156109c9578489015182556001820191506020850194506020810190506109a4565b868310156109e657848901516109e2601f8916826108f5565b8355505b6001600288020188555050505b505050505050565b5f606082019050610a0e5f830186610523565b610a1b602083018561045c565b8181036040830152610a2d81846104bd565b905094935050505056fea2646970667358221220d2b03f9cc082d8119aca879c23ec672447836c0c2ca3cfc4c1ee253a5301c27d64736f6c63430008150033",
  "immutableReferences": {},
  "source": "// SPDX-License-Identifier: MIT\r\npragma solidity ^0.8.0;\r\n\r\ncontract DocumentManager {\r\n    struct Document {\r\n        address owner;\r\n        string fileHash;\r\n    }\r\n\r\n    mapping(uint256 => Document) public documents;\r\n    uint256 public documentCount;\r\n\r\n    event DocumentAdded(uint256 documentId, address owner, string fileHash);\r\n\r\n    function addDocument(string memory fileHash) public {\r\n        documentCount++;\r\n        documents[documentCount] = Document(msg.sender, fileHash);\r\n\r\n        emit DocumentAdded(documentCount, msg.sender, fileHash);\r\n    }\r\n\r\n    function getDocument(uint256 documentId) public view returns (address, string memory) {\r\n        Document memory doc = documents[documentId];\r\n        return (doc.owner, doc.fileHash);\r\n    }\r\n}\r\n",
  "sourcePath": "D:\\COLLEGE\\Mini Project\\b-lock\\contracts\\DocumentManager.sol",
  "compiler": {
    "name": "solc",
    "version": "0.8.21+commit.d9974bed.Emscripten.clang"
  },
  "schemaVersion": "3.4.16",
  "updatedAt": "2024-06-20T09:31:49.813Z",
  "devdoc": {
    "kind": "dev",
    "methods": {},
    "version": 1
  },
  "userdoc": {
    "kind": "user",
    "methods": {},
    "version": 1
  }
}